{"contracts/libraries/RandomGenerator.sol":{"RandomGenerator":{"abi":[{"inputs":[{"internalType":"address","name":"_user","type":"address"},{"internalType":"uint256","name":"_limit","type":"uint256"},{"internalType":"uint256","name":"_salt","type":"uint256"}],"name":"random","outputs":[{"internalType":"uint256","name":"","type":"uint256"}],"stateMutability":"view","type":"function"}],"devdoc":{"kind":"dev","methods":{},"version":1},"evm":{"bytecode":{"linkReferences":{},"object":"610313610053600b82828239805160001a607314610046577f4e487b7100000000000000000000000000000000000000000000000000000000600052600060045260246000fd5b30600052607381538281f3fe73000000000000000000000000000000000000000030146080604052600436106100355760003560e01c80636ff0d2311461003a575b600080fd5b610054600480360381019061004f9190610149565b61006a565b60405161006191906101ab565b60405180910390f35b60008242448685604051602001610084949392919061022f565b6040516020818303038152906040528051906020012060001c6100a791906102ac565b90509392505050565b600080fd5b600073ffffffffffffffffffffffffffffffffffffffff82169050919050565b60006100e0826100b5565b9050919050565b6100f0816100d5565b81146100fb57600080fd5b50565b60008135905061010d816100e7565b92915050565b6000819050919050565b61012681610113565b811461013157600080fd5b50565b6000813590506101438161011d565b92915050565b600080600060608486031215610162576101616100b0565b5b6000610170868287016100fe565b935050602061018186828701610134565b925050604061019286828701610134565b9150509250925092565b6101a581610113565b82525050565b60006020820190506101c0600083018461019c565b92915050565b6000819050919050565b6101e16101dc82610113565b6101c6565b82525050565b60008160601b9050919050565b60006101ff826101e7565b9050919050565b6000610211826101f4565b9050919050565b610229610224826100d5565b610206565b82525050565b600061023b82876101d0565b60208201915061024b82866101d0565b60208201915061025b8285610218565b60148201915061026b82846101d0565b60208201915081905095945050505050565b7f4e487b7100000000000000000000000000000000000000000000000000000000600052601260045260246000fd5b60006102b782610113565b91506102c283610113565b9250826102d2576102d161027d565b5b82820690509291505056fea26469706673582212209db2e46a776807d1a30eeb57390b4af96fa012bd54a95eb7261b6dea83e4f22764736f6c63430008110033","opcodes":"PUSH2 0x313 PUSH2 0x53 PUSH1 0xB DUP3 DUP3 DUP3 CODECOPY DUP1 MLOAD PUSH1 0x0 BYTE PUSH1 0x73 EQ PUSH2 0x46 JUMPI PUSH32 0x4E487B7100000000000000000000000000000000000000000000000000000000 PUSH1 0x0 MSTORE PUSH1 0x0 PUSH1 0x4 MSTORE PUSH1 0x24 PUSH1 0x0 REVERT JUMPDEST ADDRESS PUSH1 0x0 MSTORE PUSH1 0x73 DUP2 MSTORE8 DUP3 DUP2 RETURN INVALID PUSH20 0x0 ADDRESS EQ PUSH1 0x80 PUSH1 0x40 MSTORE PUSH1 0x4 CALLDATASIZE LT PUSH2 0x35 JUMPI PUSH1 0x0 CALLDATALOAD PUSH1 0xE0 SHR DUP1 PUSH4 0x6FF0D231 EQ PUSH2 0x3A JUMPI JUMPDEST PUSH1 0x0 DUP1 REVERT JUMPDEST PUSH2 0x54 PUSH1 0x4 DUP1 CALLDATASIZE SUB DUP2 ADD SWAP1 PUSH2 0x4F SWAP2 SWAP1 PUSH2 0x149 JUMP JUMPDEST PUSH2 0x6A JUMP JUMPDEST PUSH1 0x40 MLOAD PUSH2 0x61 SWAP2 SWAP1 PUSH2 0x1AB JUMP JUMPDEST PUSH1 0x40 MLOAD DUP1 SWAP2 SUB SWAP1 RETURN JUMPDEST PUSH1 0x0 DUP3 TIMESTAMP DIFFICULTY DUP7 DUP6 PUSH1 0x40 MLOAD PUSH1 0x20 ADD PUSH2 0x84 SWAP5 SWAP4 SWAP3 SWAP2 SWAP1 PUSH2 0x22F JUMP JUMPDEST PUSH1 0x40 MLOAD PUSH1 0x20 DUP2 DUP4 SUB SUB DUP2 MSTORE SWAP1 PUSH1 0x40 MSTORE DUP1 MLOAD SWAP1 PUSH1 0x20 ADD KECCAK256 PUSH1 0x0 SHR PUSH2 0xA7 SWAP2 SWAP1 PUSH2 0x2AC JUMP JUMPDEST SWAP1 POP SWAP4 SWAP3 POP POP POP JUMP JUMPDEST PUSH1 0x0 DUP1 REVERT JUMPDEST PUSH1 0x0 PUSH20 0xFFFFFFFFFFFFFFFFFFFFFFFFFFFFFFFFFFFFFFFF DUP3 AND SWAP1 POP SWAP2 SWAP1 POP JUMP JUMPDEST PUSH1 0x0 PUSH2 0xE0 DUP3 PUSH2 0xB5 JUMP JUMPDEST SWAP1 POP SWAP2 SWAP1 POP JUMP JUMPDEST PUSH2 0xF0 DUP2 PUSH2 0xD5 JUMP JUMPDEST DUP2 EQ PUSH2 0xFB JUMPI PUSH1 0x0 DUP1 REVERT JUMPDEST POP JUMP JUMPDEST PUSH1 0x0 DUP2 CALLDATALOAD SWAP1 POP PUSH2 0x10D DUP2 PUSH2 0xE7 JUMP JUMPDEST SWAP3 SWAP2 POP POP JUMP JUMPDEST PUSH1 0x0 DUP2 SWAP1 POP SWAP2 SWAP1 POP JUMP JUMPDEST PUSH2 0x126 DUP2 PUSH2 0x113 JUMP JUMPDEST DUP2 EQ PUSH2 0x131 JUMPI PUSH1 0x0 DUP1 REVERT JUMPDEST POP JUMP JUMPDEST PUSH1 0x0 DUP2 CALLDATALOAD SWAP1 POP PUSH2 0x143 DUP2 PUSH2 0x11D JUMP JUMPDEST SWAP3 SWAP2 POP POP JUMP JUMPDEST PUSH1 0x0 DUP1 PUSH1 0x0 PUSH1 0x60 DUP5 DUP7 SUB SLT ISZERO PUSH2 0x162 JUMPI PUSH2 0x161 PUSH2 0xB0 JUMP JUMPDEST JUMPDEST PUSH1 0x0 PUSH2 0x170 DUP7 DUP3 DUP8 ADD PUSH2 0xFE JUMP JUMPDEST SWAP4 POP POP PUSH1 0x20 PUSH2 0x181 DUP7 DUP3 DUP8 ADD PUSH2 0x134 JUMP JUMPDEST SWAP3 POP POP PUSH1 0x40 PUSH2 0x192 DUP7 DUP3 DUP8 ADD PUSH2 0x134 JUMP JUMPDEST SWAP2 POP POP SWAP3 POP SWAP3 POP SWAP3 JUMP JUMPDEST PUSH2 0x1A5 DUP2 PUSH2 0x113 JUMP JUMPDEST DUP3 MSTORE POP POP JUMP JUMPDEST PUSH1 0x0 PUSH1 0x20 DUP3 ADD SWAP1 POP PUSH2 0x1C0 PUSH1 0x0 DUP4 ADD DUP5 PUSH2 0x19C JUMP JUMPDEST SWAP3 SWAP2 POP POP JUMP JUMPDEST PUSH1 0x0 DUP2 SWAP1 POP SWAP2 SWAP1 POP JUMP JUMPDEST PUSH2 0x1E1 PUSH2 0x1DC DUP3 PUSH2 0x113 JUMP JUMPDEST PUSH2 0x1C6 JUMP JUMPDEST DUP3 MSTORE POP POP JUMP JUMPDEST PUSH1 0x0 DUP2 PUSH1 0x60 SHL SWAP1 POP SWAP2 SWAP1 POP JUMP JUMPDEST PUSH1 0x0 PUSH2 0x1FF DUP3 PUSH2 0x1E7 JUMP JUMPDEST SWAP1 POP SWAP2 SWAP1 POP JUMP JUMPDEST PUSH1 0x0 PUSH2 0x211 DUP3 PUSH2 0x1F4 JUMP JUMPDEST SWAP1 POP SWAP2 SWAP1 POP JUMP JUMPDEST PUSH2 0x229 PUSH2 0x224 DUP3 PUSH2 0xD5 JUMP JUMPDEST PUSH2 0x206 JUMP JUMPDEST DUP3 MSTORE POP POP JUMP JUMPDEST PUSH1 0x0 PUSH2 0x23B DUP3 DUP8 PUSH2 0x1D0 JUMP JUMPDEST PUSH1 0x20 DUP3 ADD SWAP2 POP PUSH2 0x24B DUP3 DUP7 PUSH2 0x1D0 JUMP JUMPDEST PUSH1 0x20 DUP3 ADD SWAP2 POP PUSH2 0x25B DUP3 DUP6 PUSH2 0x218 JUMP JUMPDEST PUSH1 0x14 DUP3 ADD SWAP2 POP PUSH2 0x26B DUP3 DUP5 PUSH2 0x1D0 JUMP JUMPDEST PUSH1 0x20 DUP3 ADD SWAP2 POP DUP2 SWAP1 POP SWAP6 SWAP5 POP POP POP POP POP JUMP JUMPDEST PUSH32 0x4E487B7100000000000000000000000000000000000000000000000000000000 PUSH1 0x0 MSTORE PUSH1 0x12 PUSH1 0x4 MSTORE PUSH1 0x24 PUSH1 0x0 REVERT JUMPDEST PUSH1 0x0 PUSH2 0x2B7 DUP3 PUSH2 0x113 JUMP JUMPDEST SWAP2 POP PUSH2 0x2C2 DUP4 PUSH2 0x113 JUMP JUMPDEST SWAP3 POP DUP3 PUSH2 0x2D2 JUMPI PUSH2 0x2D1 PUSH2 0x27D JUMP JUMPDEST JUMPDEST DUP3 DUP3 MOD SWAP1 POP SWAP3 SWAP2 POP POP JUMP INVALID LOG2 PUSH5 0x6970667358 0x22 SLT KECCAK256 SWAP14 0xB2 0xE4 PUSH11 0x776807D1A30EEB57390B4A 0xF9 PUSH16 0xA012BD54A95EB7261B6DEA83E4F22764 PUSH20 0x6F6C634300081100330000000000000000000000 "},"methodIdentifiers":{"random(address,uint256,uint256)":"6ff0d231"}},"userdoc":{"kind":"user","methods":{},"version":1}}}}