{
  "_format": "hh-sol-artifact-1",
  "contractName": "RandomGenerator",
  "sourceName": "contracts/libraries/RandomGenerator.sol",
  "abi": [
    {
      "inputs": [
        {
          "internalType": "address",
          "name": "_user",
          "type": "address"
        },
        {
          "internalType": "uint256",
          "name": "_limit",
          "type": "uint256"
        },
        {
          "internalType": "uint256",
          "name": "_salt",
          "type": "uint256"
        }
      ],
      "name": "random",
      "outputs": [
        {
          "internalType": "uint256",
          "name": "",
          "type": "uint256"
        }
      ],
      "stateMutability": "view",
      "type": "function"
    }
  ],
  "bytecode": "0x610313610053600b82828239805160001a607314610046577f4e487b7100000000000000000000000000000000000000000000000000000000600052600060045260246000fd5b30600052607381538281f3fe73000000000000000000000000000000000000000030146080604052600436106100355760003560e01c80636ff0d2311461003a575b600080fd5b610054600480360381019061004f9190610149565b61006a565b60405161006191906101ab565b60405180910390f35b60008242448685604051602001610084949392919061022f565b6040516020818303038152906040528051906020012060001c6100a791906102ac565b90509392505050565b600080fd5b600073ffffffffffffffffffffffffffffffffffffffff82169050919050565b60006100e0826100b5565b9050919050565b6100f0816100d5565b81146100fb57600080fd5b50565b60008135905061010d816100e7565b92915050565b6000819050919050565b61012681610113565b811461013157600080fd5b50565b6000813590506101438161011d565b92915050565b600080600060608486031215610162576101616100b0565b5b6000610170868287016100fe565b935050602061018186828701610134565b925050604061019286828701610134565b9150509250925092565b6101a581610113565b82525050565b60006020820190506101c0600083018461019c565b92915050565b6000819050919050565b6101e16101dc82610113565b6101c6565b82525050565b60008160601b9050919050565b60006101ff826101e7565b9050919050565b6000610211826101f4565b9050919050565b610229610224826100d5565b610206565b82525050565b600061023b82876101d0565b60208201915061024b82866101d0565b60208201915061025b8285610218565b60148201915061026b82846101d0565b60208201915081905095945050505050565b7f4e487b7100000000000000000000000000000000000000000000000000000000600052601260045260246000fd5b60006102b782610113565b91506102c283610113565b9250826102d2576102d161027d565b5b82820690509291505056fea26469706673582212209db2e46a776807d1a30eeb57390b4af96fa012bd54a95eb7261b6dea83e4f22764736f6c63430008110033",
  "linkReferences": {},
  "deployedLinkReferences": {}
}