{
  "_format": "hh-sol-artifact-1",
  "contractName": "Random",
  "sourceName": "contracts/Random.sol",
  "abi": [
    {
      "inputs": [],
      "stateMutability": "nonpayable",
      "type": "constructor"
    },
    {
      "inputs": [
        {
          "internalType": "address",
          "name": "_user",
          "type": "address"
        },
        {
          "internalType": "uint256",
          "name": "_limit",
          "type": "uint256"
        },
        {
          "internalType": "uint256",
          "name": "_salt",
          "type": "uint256"
        }
      ],
      "name": "generateRandom",
      "outputs": [],
      "stateMutability": "nonpayable",
      "type": "function"
    },
    {
      "inputs": [],
      "name": "random",
      "outputs": [
        {
          "internalType": "uint256",
          "name": "",
          "type": "uint256"
        }
      ],
      "stateMutability": "view",
      "type": "function"
    }
  ],
  "bytecode": "0x608060405234801561001057600080fd5b506102e5806100206000396000f3fe608060405234801561001057600080fd5b50600436106100365760003560e01c80635ec01e4d1461003b578063f2dafa3414610059575b600080fd5b610043610075565b604051610050919061011b565b60405180910390f35b610073600480360381019061006e91906101c5565b61007b565b005b60005481565b73__$28e72b28ee190e5d9cd2d39125caed21c3$__636ff0d2318484846040518463ffffffff1660e01b81526004016100b693929190610236565b602060405180830381865af41580156100d3573d6000803e3d6000fd5b505050506040513d601f19601f820116820180604052508101906100f79190610282565b600081905550505050565b6000819050919050565b61011581610102565b82525050565b6000602082019050610130600083018461010c565b92915050565b600080fd5b600073ffffffffffffffffffffffffffffffffffffffff82169050919050565b60006101668261013b565b9050919050565b6101768161015b565b811461018157600080fd5b50565b6000813590506101938161016d565b92915050565b6101a281610102565b81146101ad57600080fd5b50565b6000813590506101bf81610199565b92915050565b6000806000606084860312156101de576101dd610136565b5b60006101ec86828701610184565b93505060206101fd868287016101b0565b925050604061020e868287016101b0565b9150509250925092565b6102218161015b565b82525050565b61023081610102565b82525050565b600060608201905061024b6000830186610218565b6102586020830185610227565b6102656040830184610227565b949350505050565b60008151905061027c81610199565b92915050565b60006020828403121561029857610297610136565b5b60006102a68482850161026d565b9150509291505056fea26469706673582212202c6e348b41bb93cea0959760b17e24055363e5ea91dfdcd67d3a0a875cba2f0064736f6c63430008110033",
  "linkReferences": {
    "contracts/libraries/RandomGenerator.sol": {
      "RandomGenerator": [
        {
          "length": 20,
          "start": 157
        }
      ]
    }
  },
  "deployedLinkReferences": {
    "contracts/libraries/RandomGenerator.sol": {
      "RandomGenerator": [
        {
          "length": 20,
          "start": 125
        }
      ]
    }
  }
}